:020000040800F2
:1000000008450020113700088110000883100008FF
:10001000871000088B1000088F10000800000000F7
:100020000000000000000000000000009310000825
:100030009510000800000000637C0008A934000847
:100040002B3700082B3700082B3700082B37000808
:100050002B3700082B3700082B3700082B370008F8
:100060002B3700082B3700082B3700082B370008E8
:100070002B3700082B3700082B3700082B370008D8
:100080002B3700082B3700082B3700082B370008C8
:100090002B3700082B3700082B3700082B370008B8
:1000A0002B3700082B3700082B3700082B370008A8
:1000B0002B370008A32A00082B3700082B3700082D
:1000C0002B3700082B3700082B3700082B37000888
:1000D0002B3700087D3600082B3700082B37000827
:1000E0002B3700082B3700082B3700082B37000868
:1000F0002B3700082B3700082B3700082B37000858
:100100002B3700082B3700082B3700082B37000847
:100110002B3700082B3700082B3700082B37000837
:100120002B3700082B3700082B3700082B37000827
:1001300000F002F800F04AF80AA090E8000C8244AF
:100140008344AAF10107DA4501D100F03FF8AFF28C
:10015000090EBAE80F0013F0010F18BFFB1A43F0A5
:1001600001031847F0B5000010B60000103A24BF94
:1001700078C878C1FAD8520724BF30C830C144BF0C
:1001800004680C607047000000230024002500264E
:10019000103A28BF78C1FBD8520728BF30C148BFEA
:1001A0000B60704766290BF08680642907F0C285D2
:1001B000002070471FB508F075F9040000200021E9
:1001C00009F064FFE0601FBD10B510BD08F086FAAD
:1001D0001146FFF7EFFF00F001FF08F0A4FA03B4A7
:1001E000FFF7F2FF03BC03F0E9F90000002405E08B
:1001F000204601F0EAFA052003F0B3F9F8E796B0DB
:1002000000274FF00208002661E015AA0021FD48F2
:10021000006806F0F3FD05469DF85400002856D10D
:1002200000240BE001A800EB041005EB041292E897
:100230000A10D26880E80A10C260641C052CF1DB49
:10024000052101A801F0B8F9EF48807F10B101281D
:1002500004D101E0464602E0002600E000BF00BFF6
:1002600007F0D8FC0746E9480078082804DAE74890
:100270000078401CE5490870E548007807280FD150
:10028000E448E349097800EB011101A800EB061CE2
:100290009CE80D10A1E80D100020DD49087013E066
:1002A000DB4801780078401CD94A1070D94800EB2F
:1002B000011201A800EB061CDCE90030DCE9021C9D
:1002C000C2E9021CC2E90030384607F0A7FC9CE7EF
:1002D000ADF5006D0020CDF8F807142180A807F0D7
:1002E00033FE14217BA807F02FFE002008908346E0
:1002F00007908146401EC8490860FEE20DF5BF60C8
:1003000002F045FD80460020CDF8F40500241FE0F2
:100310000DF5BF6000EB4410006842F228318842BE
:1003200011DA0DF5BF6000EB44100069CDF8E80567
:100330000DF5BF6000EB44100068CDF8E405012026
:10034000CDF8F40506E0082C00DD03E0601CC4B223
:100350004445DDDB00BFDDF8F40570B907F05AFC59
:10036000CDF8F807ADA007F0B1FCDDF8F80707F00D
:1003700055FC052003F0F5F8BFE70027002425E130
:100380000DF5BF6000EB44104169DDF8E805091A7E
:100390000DF5BF6000EB44104268DDF8E405101A6B
:1003A000A24A126800FB02160DF5BF6000EB441074
:1003B000C1690DF5BF6000EB44104069091A0DF5E5
:1003C000BF6000EB4410C0680DF5BF6202EB441241
:1003D0005268801A954A126800FB02150DF5BF603D
:1003E00000EB441081690DF5BF6000EB44104069DB
:1003F000091A0DF5BF6000EB441080680DF5BF626F
:1004000002EB44125268801A884A126800FB0210FC
:10041000CDF8F00586480088B0F5966F05DD854873
:10042000864202DA002006901DE081480088B0F57F
:10043000C86F05DD8048864202DA0020069012E08F
:1004400042F21070854201DC002D02DC0020069093
:1004500009E07A48864201DC002E02DC002006908A
:1004600001E0012006906848807F10B1012862D128
:1004700034E06F480088B0F5966F08DC704886421B
:1004800005DAB5F5C86F02DD0020069025E0694861
:10049000864206DA40F69800854202DD002006908A
:1004A0001BE041F28830854217DD30460AF0A7F89C
:1004B0000022644BCDE900010AF008F90022624BEA
:1004C000CDE9020109F0E6FE0022604BCDE904010E
:1004D0000AF0C0F801D2002006902CE040F24C4017
:1004E000854202DA0020069024E05248864205DA6E
:1004F000B5F5FA6F02DD002006901BE041F288306E
:10050000854217DD30460AF07AF800224D4BCDE9DE
:1005100000010AF0DBF800224B4BCDE9020109F0A3
:10052000B9FE00224A4BCDE904010AF093F801D24A
:100530000020069000BF00BF30460AF060F800229D
:10054000404BCDE900010AF0C1F800223E4BCDE955
:10055000020109F09FFECDE9040109F0ADFD8246DC
:10056000002150460AF01EFD0ED107F053FBCDF8D6
:10057000F8072A46314637A007F0A8FBDDF8F80750
:1005800007F04CFB00200690069801281CD100952E
:10059000314685A8DDF8EC35DDF8F02501F0A0F94D
:1005A00007EB87000DA901EB8000C0F810A03846CA
:1005B000791CCFB200EB80000DA901EB800085A96A
:1005C00091E80E10A0E80E10601CC4B24445FFF67E
:1005D000D7AEA7B92648007890B90B48807F78B984
:1005E00007F018FBCDF8F80722A007F06FFBDDF845
:1005F000F80707F013FB01201D490870C4E249E029
:1006000044E000002C000020C8320020310000200F
:1006100030000020C8300020380000206661696C7E
:10062000206D6561737572652E0D0A00C8B30008F0
:1006300034000020A0860100400D03008096980041
:1006400010EB09000000F83F0088C340000079402B
:100650000000594074696D655F70733A25642E0A15
:100660002065727274696D653A25642E0A00000077
:100670003200002065786974207375636365737355
:1006800020313630302E0D0A00000000052002F027
:1006900068FF79E2CFB1FC480078B0B90120FA498F
:1006A000087007F0B7FACDF8F807F8480088F8495D
:1006B0000880F8A007F00AFBF548008802F0FBFD6F
:1006C000DDF8F80707F0AAFA5EE2032F7EDA012FC1
:1006D0007DD1F648807F002863D1F54911980AF052
:1006E00044FD5ED211987F900DA80FC87E937BAB1E
:1006F00007C384997F980AF069FD04900AF086FC8C
:100700000590002801DB059801E005984042052886
:100710003FDA07F07FFACDF8F807E64800780828B6
:1007200005DAE4480078401CE249087002E0002045
:10073000E0490870E048007807280DD1DF48DE491D
:10074000097800EB01107BA991E80E10A0E80E10CB
:100750000020D94908700DE0D74801780078401C86
:10076000D54A1070D54800EB01107BA991E80E1016
:10077000A0E80E10D2A007F0A9FADDF8F80707F0FC
:100780004DFA7F9884907BA80FC8839380AB07C3F2
:10079000F6E17F9884907BA80FC8839380AB07C352
:1007A000EEE1C248807F012866D1C94911980AF05C
:1007B000DCFC61D211987F900DA80FC87E937BABB3
:1007C00007C384997F980AF001FD01E016E169E012
:1007D00004900AF01BFC0590002801DB059801E05D
:1007E0000598404203283FDA07F014FACDF8F807DD
:1007F000B0480078082805DAAE480078401CAD49BA
:10080000087002E00020AB490870AB480078072868
:100810000DD1AA48A849097800EB01107BA991E8FD
:100820000E10A0E80E100020A34908700DE0A248A9
:1008300001780078401CA04A1070A04800EB01101D
:100840007BA991E80E10A0E80E10A2A007F03EFAD6
:10085000DDF8F80707F0E2F97F9884907BA80FC8CD
:10086000839380AB07C38BE17F9884907BA80FC8EC
:10087000839380AB07C383E10898411C089189A941
:1008800001EB00100DA991E80E10A0E80E100898D9
:10089000052885D10020089089A99148006806F0B4
:1008A00075FB6DE107F0B6F9CDF8F8078DA007F0FC
:1008B0000DFA16980AF01AFACDE9040111980AF017
:1008C00015FACDE90201DDE90401CDE9000189A0B5
:1008D000DDE9022307F0FAF9DDF8F80707F09EF9E1
:1008E0006B480088B0F5C86F08DD874916980AF094
:1008F000BDFB03D26D48807F00B945E164480088A4
:1009000040F2DC51884218DD7F4916980AF0AEFBB0
:1009100013D207F07FF9CDF8F8075C4800885C49EE
:1009200008807AA007F0D2F95948008802F0C3FC89
:10093000DDF8F80707F072F926E1002412E009EB70
:1009400089025DAB03EBC20204EB840302EB83007C
:1009500004EB84020DAB03EB8201142207F0C2FA10
:10096000601CC4B2BC42EADB09F1010000F0FF09DF
:10097000B9F1030F95D185AA49465DA801F067F842
:10098000A8B307F047F9CDF8F8074A4800780828D7
:1009900005DA48480078401C4649087002E000200B
:1009A000444908704448007807280DD1434842491B
:1009B000097800EB011085A991E80E10A0E80E104F
:1009C00000203D4908700DE03B4801780078401C4C
:1009D000394A1070394800EB011085A991E80E10D2
:1009E000A0E80E10DDF8F80707F018F903E0FFE7BC
:1009F0004FF00009C8E04FF00009C1E04848007816
:100A000010B9012046490870002414E05846411CE2
:100A100001F0FF0B89A901EB001104EB84000DAA82
:100A200002EB800CDCE90023DCE9020CC1E9020CDA
:100A30000CC1601CC4B2BC42E8DB0798401CC0B2C9
:100A40000790079805281ED1594689A800F0B4FDE3
:100A500044F620635A4689A902A800F0B6FF02A80E
:100A60000FC8CDE90B23CDE9090107F0D3F8CDF884
:100A7000F80710480078082854DA0E480078401C1F
:100A80000C49087051E07BE032000020ACB3000854
:100A9000340000206578697420737563636573732F
:100AA00020313130302E0D0A00000000C832002005
:100AB000000016443100002030000020C830002023
:100AC00077616C6C6F7665723630302E0A000000EC
:100AD0000000A0426C696E656F7665722E0A000098
:100AE0002C000020327661696C645F64617461215E
:100AF0002E202000313A252E33662E2020323A2532
:100B00002E33662E0A0000000000C8426578697422
:100B10002073657420313130302E0D0A0000000042
:100B2000280000200020FE490870FE4800780728B1
:100B30000DD1FD48FB49097800EB011009A991E8A6
:100B40000E10A0E80E100020F64908700DE0F548E0
:100B500001780078401CF34A1070F34800EB011054
:100B600009A991E80E10A0E80E10F0A007F0AEF869
:100B7000DDF8F80707F052F84FF0000B002007905F
:100B80000A2002F0EEFC00BFFFF7B8BB8CB00020DB
:100B90000B90069082468346E6490870082006F0CE
:100BA00041FEE548807F18B90520E449087002E05D
:100BB0000020E24908700020E149087007F02AF897
:100BC0000B90E048DD49097830F81100DE490880D3
:100BD0000846008802F06FFB0B9807F01FF84FF4EF
:100BE000FA7002F0BEFC61E1D848007801280AD111
:100BF00007F010F80B90D4480188D5A007F066F8EC
:100C00000B9807F00BF807F005F80B90C448007834
:100C100058B3C3480178C44800F0CEFCC0490878F6
:100C200000EBD0714910C04A02EB0111096806912E
:100C3000BB49087800EBD071491002EB0111D1F8E3
:100C40000CA0B749087800EBD071491002EB0116EF
:100C50004ECECDE90936CDE907124FF0010B002049
:100C6000AF490870AF49087001E04FF0000B0B98D6
:100C700006F0D4FFBBF1000F7ED0B748007810B962
:100C80000120B54908700020B4490870069809F0A1
:100C9000CDFC80460022B24B09F018FD064600222A
:100CA000B04B09F0F7FAB04A03C2AF4830C8A748C2
:100CB000007801280AD106F0ADFF0B9022462B46A2
:100CC000AAA007F003F80B9806F0A8FF9A48807FC7
:100CD00010B1012818D10BE09C480078012802D1FE
:100CE000A5A006F0F3FFA04907A801F01CFA0CE04C
:100CF00096480078012802D1A1A006F0E7FF9A49A2
:100D000007A801F010FA00E000BF00BF8F4800788C
:100D1000012813D106F07EFF0B909BA006F0D6FFB2
:100D2000DDE90810CDE900A102908F480CC897A01A
:100D300006F0CCFF0B9806F071FFB3E006F06AFFF7
:100D40000B905246884902A800F0F4FADDE902014E
:100D5000CDE9040100BF4021944803F091FA002836
:100D6000F9D09DF81010914803F01CFA00BF402103
:100D70008E4803F085FA00E016E00028F7D09DF8D1
:100D800011108A4803F00EFA00BF4021874803F093
:100D900077FA0028F9D09DF81210844803F002FA7F
:100DA0000B9806F03BFF7DE06848007830BB06F00A
:100DB00031FF0B9000BF40217C4803F061FA00280E
:100DC000F9D0FF21794803F0EDF900BF40217748C1
:100DD00003F056FA0028F9D0FF21744803F0E2F935
:100DE00000BF4021714803F04BFA0028F9D0FF21E1
:100DF0006E4803F0D7F90B9806F010FF56480078BC
:100E0000F0B94E4800780C2805DA4C480078401CB0
:100E10004A49087002E001204F49087006F0FAFEC6
:100E20000B9048484549097830F811004649088038
:100E30000846008802F03FFA0B9806F0EFFE31E01A
:100E40003D48807F01280BD10022594B464903C9F8
:100E500009F000FC04D240F24C403B49088021E0FC
:100E60003E480078052805DA3C480078401C3B499C
:100E7000087017E0002038490870384908702F4979
:100E8000087006F0C7FE0B902E482C49097830F800
:100E900011002D4908800846008802F00CFA0B98D2
:100EA00006F0BCFE4FF4FA7002F05BFB9CE670B5F6
:100EB0000446002501203F49086002F052FB002053
:100EC0003D49C1F8900101201A49087000BF010294
:100ED0003A4805F0C5FE3A49086006F09BFE054613
:100EE0000523384A0021AFF25B3006F01BFA0623D7
:100EF000354A0021AFF6274006F014FA0723334A9B
:100F00000021AFF6055006F00DFA0823304A002103
:100F1000AFF6275006F006FA0A2006F083FC59E0E7
:100F20003100002030000020C8300020356461749A
:100F3000612E0A0033000020C83200202B00002060
:100F400032000020ACB30008340000202A0000204A
:100F50000A713A25642000002800002029000020A2
:100F60000000F83F0088C340180000204F52473A65
:100F7000252E32662000000077616C6C2000000096
:100F80006C696E65200000004D563A00643A252ECB
:100F90003266206574333A2564206574313A2564DD
:100FA000206574323A25640A0000000000380140D0
:100FB000008041409001214200002142C82C0020C5
:100FC0002C000020C4090020C4290020C42B0020CC
:100FD000C42C0020284606F021FE70BD08B54FF451
:100FE000A06002F0B5FB02F06BFA4FF4165002F06D
:100FF000F4FA00F068F901F0EBFF02F00BFA02F0EE
:10100000EDF802F06BF902F07EF901F03FFF01F01C
:10101000C5FD01F0E8FD154800F004FE1448012369
:101020005022D92100903C2000F033FE11480023CB
:101030005022D92100903C2000F02BFE01210846CF
:1010400000F0BAFF012002F02AF90B48008802F0F4
:1010500032F904F0C0FD0A23084A0021AFF2B110B2
:1010600006F060F904F0DEFE002008BDC832002062
:10107000892200087D25000834000020C4010020DA
:10108000704700BFFEE700BFFEE700BFFEE700BFFE
:10109000FEE77047704700000CB5002001900090FB
:1010A0006C48006840F480306A49086000BF6948B5
:1010B000006800F4003000900198401C01900098F6
:1010C00018B90198B0F5A06FF1D16248006800F43A
:1010D000003010B10120009001E000200090009845
:1010E000012843D15C48006840F010005A4908606C
:1010F0000846006820F0030008600846006840F0D9
:1011000002000860534840685249486008464068F9
:1011100048600846406840F480604860084640687F
:1011200020F47C1048600846406840F4E8104860AD
:101130000846006840F08070086000BF45480068BD
:1011400000F000700028F9D04248406820F0030009
:10115000404948600846406840F00200486000BFCF
:101160003C48406800F00C000828F9D10CBD10B5CF
:10117000FFF792FF10BD10B53648006840F001003F
:10118000344908600846406834490840314948609D
:1011900008460068324908402E4908600846006841
:1011A00020F4802008600846406820F4FE00486073
:1011B0004FF41F008860FFF7DAFF4FF00060294905
:1011C000086010BD10B5002100200022214B5B6893
:1011D00003F00C0121B1042906D0082928D107E029
:1011E000214B224C236027E01F4B204C236023E03F
:1011F000184B5B6803F47010164B5B6803F4803285
:10120000022303EB904022B9194B4343174C236050
:101210000DE0104B5B6803F4003323B1144B4343E0
:10122000124C236003E0104B4343104C236003E057
:101230000D4B0E4C236000BF00BF064B5B68C3F331
:1012400003130C4CE15C094B1B68CB40074C23603B
:1012500010BD000000100240002002400000FFF816
:10126000FFFFF6FE08ED00E000127A00000000200B
:1012700000093D00040000200021FE4800880228EB
:101280001FDDFD48405CCD2819D1FB4A481C105C8D
:101290004F2810D1881C105C112803D10120F74A77
:1012A000907707E0F44A881C105C332802D10020B4
:1012B000F24A907700E000BF00BF00207047481C52
:1012C00081B20120FAE710B5ED48007801280CD171
:1012D0000121EC4802F09DFB012802D1E749887703
:1012E00008E00020E549887704E000BFFFF7C4FF6D
:1012F0000028FBD110BD2DE9F04704464FF000094E
:10130000A07809F093F907460022DF4B08F0C2FFEE
:1013100005460E466078217800EB01201FFA80F91F
:10132000484609F083F907462A46334608F0F6FE98
:10133000BDE8F0872DE9F04F87B006460C46914690
:10134000D4E90021104609F02DF90546280A8DF848
:101350001000E8B28DF81100284609F067F98246BE
:10136000D4E900733A4609F0E5FA0022C64BCDE90C
:10137000000109F0ABF9CDE9020109F013F9C0B29F
:101380008DF81200CDF81490DDE90401C6E90001E2
:1013900007B0BDE8F08F014600200A781044000233
:1013A0004A78104400028A78104470472DE9F041D1
:1013B0000446E0B209F03AF907460022B24B08F0C1
:1013C00069FF05460E46200A09F030F907462A460D
:1013D000334608F0A3FE05460E4628463146BDE8D2
:1013E000F0817FB50446002221466846FFF7A2FF40
:1013F000DDE90001CDE9020102A8FFF7CCFF0546B7
:10140000284604B070BD70B50446A078642100FB86
:1014100001F56078237800EB0321E81705EB1060F5
:1014200002129AA006F052FC70BD70B50446204628
:10143000FFF7BCFF05460E462A46334696A006F047
:1014400045FC70BD7CB5034653F831402FE000E009
:10145000521E914203DA53F83200A042F8D203EB55
:10146000C10521CDCDE9000503EBC10003EBC206A8
:1014700060CE60C003EBC200DDE9005660C000E052
:10148000491C914203DA53F83100A042F8D903EB2A
:10149000C10521CDCDE9000503EBC10003EBC20678
:1014A00060CE60C003EBC200DDE9005660C091422F
:1014B000CDDB08467CBDF0B507460D461646B54265
:1014C0000FDA324629463846FFF7BCFF0446621E53
:1014D00029463846FFF7EFFF3246611C3846FFF7D2
:1014E000EAFFF0BD30B505460C46621E00212846D5
:1014F000FFF7E1FF30BDFFB5034603EB01100468C1
:101500003EE000E0521E914204DA03EB0210006854
:10151000A042F7D203EB0117D7E90065D7E902072C
:10152000CDE90207CDE9006503EB011003EB0217DB
:1015300097E86010FF6880E86010C76003EB021056
:101540009DE8E010A0E8E01000E0491C914204DAB8
:1015500003EB01100068A042F7D903EB0117E1CFBC
:101560008DE8E10003EB011003EB021C9CE8E010A6
:10157000A0E8E01003EB02109DE8E010A0E8E01006
:101580009142BEDB084604B0F0BDF0B507460D46FB
:101590001646B5420FDA324629463846FFF7ABFF0A
:1015A0000446621E29463846FFF7EFFF3246611CAB
:1015B0003846FFF7EAFFF0BD30B505460C46621E1F
:1015C00000212846FFF7E1FF30BD2DE9F04F97B02D
:1015D0008246894600210D460E4628210CA806F0B9
:1015E000B3FC0024A34600200B9000BF28E00AEBC8
:1015F0000411086809F01AF807460022284B09F080
:1016000065F80022274BCDE9080108F043FE0CAA3B
:1016100002EBC40203C2584608F0F1FFCDE908010D
:101620000CA800EBC40103C9CDE90601DDE90823DC
:1016300008F074FD074608F085FF8346601CC4B2BD
:101640004C45D4DB9BFBF9F00B90002445E0484669
:1016500008F0ECFFCDE906010B9808F0D0FFCDE9CA
:1016600000010CA800EBC400D0E900733A460098D2
:101670001AE0000064000020E8320020C832002098
:101680002A000020000801400000704025642E253B
:101690003032642000000000252E32662000000059
:1016A0000000F83F0088C34009F044F900224FF0E1
:1016B0008043CDE9020107F087FFCDE90401DDE9B0
:1016C000062308F0E7FD2A463346CDE9080108F075
:1016D00025FD05460E46601CC4B24C45B7DB2846C6
:1016E000314617B0BDE8F08F2DE9F04F89B00446C0
:1016F0000D46FE480890002213462046294608F071
:10170000A9FF01D285F000450022F94B2046294669
:1017100008F004FD0022F64BCDE9040120462946DD
:1017200009F0FAF9CDE90201DDE9042308F0B2FD80
:10173000074688463A4643463846414608F0C6FFC3
:10174000CDE90601089E700000F1010B584608F033
:1017500056FF02460B46CDE904010020E44908F09B
:1017600099FD81468A46089E1DE0ABF1020B4A4670
:101770005346DDE9060108F0A9FFCDE9040158460A
:1017800008F03DFF02460B46CDE900010020D84994
:1017900008F080FDCDE90201DDE9042308F0BEFC7C
:1017A00081468A46761E002EDFDC3A4643460020FC
:1017B0004FF0804108F08AFF4A465346CDE90401C4
:1017C00008F084FF09B0BDE8F08F2DE9F041044630
:1017D000C848008808F02AFF05460022C64B08F0DA
:1017E00059FD07464FF06632C44B08F06FFFC44AFC
:1017F00003C20022C34BC24903C908F02BFF08D221
:10180000BF480CC80020BF4909F086F9BE4A03C290
:101810000EE00022BB4BBA4903C909F055F807D8BE
:101820000022B84BB64903C909F076F9B64A03C29B
:101830004FF06632B54BB24903C908F00BFF4DD2E9
:10184000B3480088B0F5FA6F04DD4FF4FA60B04990
:10185000088039E00022A64BAB4903C909F034F8EF
:1018600005D2AB4800880A30A94908802CE0A94A73
:10187000A94BA54903C909F027F805D2A448008857
:101880000830A34908801FE04FF03332A34B9E4934
:1018900003C909F019F805D29D480088001D9C492C
:1018A000088011E09B4A9E4B974903C909F00CF848
:1018B00005D297480088801C9549088004E0944828
:1018C0000088401C9249088006F0A4F9044690481C
:1018D000008801F0F0FC204606F0A0F9BDE8F08198
:1018E00010B5029C016042608360C46010BD2DE9A8
:1018F000F04F8BB081460C4640F24C412068884244
:1019000030D92068B0F5FA6F2CD2206808F08EFE2E
:101910008246844A844B08F0D9FE0022834BCDE9ED
:10192000000108F0FBFBCDE90201FFF7DDFE0746F1
:101930007F4A804B08F0CAFECDE90401D9E9007363
:101940003A4608F0F7FF7C4A7C4BCDE9060108F0E7
:10195000E5FB704A7A4BCDE9080109F0DDF8054650
:101960000E462DE02068B0F5FA6F1FD3206808F00E
:101970005DFE744A744BCDE9060108F0A7FECDE97F
:101980000801D9E90001CDE90601DDE9082309F0E4
:10199000C3F807466D4A6E4B09F0BEF882465D4AB1
:1019A000674B09F0B9F805460E4609E04FF03332AF
:1019B000684BD9E90071384609F0AEF805460E4685
:1019C000284631460BB0BDE8F08F2DE9F04F0546B3
:1019D0000C461646002200270021D4F800E0012022
:1019E000012119E004EB011CDCF800C0ACEB0E0C8B
:1019F0009C4504D200F1010C0CF0FF000BE090427A
:101A000004DD0246A1EB020C0CF0FF0704EB011C05
:101A1000DCF800E00120491CB142E3DB904204DD28
:101A20000246A1EB020C0CF0FF0702EB470C0CEB9B
:101A3000DC784FEA680804EB081898E8000ED8F83C
:101A40000C8085E8000EC5F80C80BDE8F08F2DE90C
:101A5000F04F8BB005460E46914600200990089045
:101A6000002413E004EB840005EBC000016950463C
:101A700009F068F9824604EB840005EBC000416A76
:101A8000584609F05FF98346601CC4B2B442E9DBF2
:101A9000304609F0D7FA07463946504609F0C0F9F2
:101AA0008246304609F0CEFA07463946584609F0D4
:101AB000B7F9834600247BE004EB840105EBC10108
:101AC0000869514609F082FB019009F00FF90746B9
:101AD00000224FF0804307F077FDCDE9040109981B
:101AE00009F004F9CDE9020136E00000A08601000A
:101AF0000000F03F580000200000B04066660A4039
:101B000040000020000008404800002066660640B3
:101B1000340000209A9999999999E93F3333E33F2A
:101B20009999D93F569FABADD8DF25C00053C64029
:101B3000696FF085C954EB3FF4FDD478E92608407D
:101B40009999C93F2D431CEBE2363A3F5DDC4603D1
:101B5000784B104033330340DDE9042308F0DEFA0C
:101B6000CDE9060108F0A8FA099004EB840105EB21
:101B7000C101486A594609F029FB019009F0B6F8FD
:101B8000074600224FF0804307F01EFDCDE9040117
:101B9000089809F0ABF8CDE90201DDE9042308F06B
:101BA000BDFACDE9060108F087FA0890601CC4B2BE
:101BB000B44281DB304609F045FA074639460998B8
:101BC00009F02EF90990304609F03CFA07463946EB
:101BD000099809F025F908901049099809F046FA82
:101BE0001AD20E49089809F041FA15D20C49584604
:101BF00009F03CFA04D295E80F0089E80F0007E0ED
:101C0000D5E90703D5E90512C9E90203C9E90012BC
:101C100001200BB0BDE8F08F0020FAE70000204162
:101C20000000484310B502460AB9012010BDFE4825
:101C30000078012801D10220F8E70120FA4C207039
:101C4000FA481060136801210BE001EB4100F74CEA
:101C500004EB8000986001EB410004EB8003481C1A
:101C6000C1B22029F1DB0020E0E7014609B90120DB
:101C70007047CA7822B9EE488068ED4B9B6998603E
:101C8000012A04D1EA484068E94B5B69986000206A
:101C9000EEE72DE9F04105460E4617461C46DDF8F5
:101CA0001880E348006810B90320BDE8F081E048DF
:101CB00000680570DE4800684670DD48006887707F
:101CC000DB480068C470DA480068C0F80480F4B9E2
:101CD000D748806850B9D6480068D5498861084619
:101CE0000068886008460068086108E0D04800681D
:101CF000CF4989698860CE480068CD498861CC4861
:101D000000688068CA490860002089698860012CE1
:101D10001ED1C748406850B9C5480068C4494861E9
:101D200008460068486008460068C86008E0C04887
:101D30000068BF4949698860BD480068BC4948617E
:101D4000BB4800688068BA4908600020496988601B
:101D500034B9B748007F18B1B5498868FFF785FFE7
:101D6000012C06D1B248407F18B1B1494868FFF74D
:101D70007CFF002099E7014609B901207047CA7825
:101D80001AB90020AA4B9B699860012A03D1002050
:101D9000A74B5B6998600020F0E72DE9F04106460B
:101DA0000F4690461D460024F5B9A1498868FFF703
:101DB000E2FF9F4884680DE02078B04209D1607846
:101DC000B84206D1A078404503D1E078A84200D1BE
:101DD00002E0A468002CEFD100BF9548007F18B145
:101DE00093498868FFF741FF012D1ED1904948684B
:101DF000FFF7C1FF8E4844680DE02078B04209D15A
:101E00006078B84206D1A078404503D1E078A84276
:101E100000D102E0A468002CEFD100BF8448407FCD
:101E200018B183494868FFF720FF2046BDE8F081DC
:101E30002DE9F0478046894692461D462B4652467C
:101E400049464046FFF7A9FF044614B90420BDE8FF
:101E5000F08715B97648806801E075484068064605
:101E600065B973498868FFF786FF71480069A04229
:101E700004D16F48006980686D490861012D0CD15B
:101E80006B494868FFF777FF6948C068A04204D1F2
:101E90006748C06880686649C860A64231D145B9C4
:101EA0006349B06888600846806810B9002088617E
:101EB0000861012D08D15E49B06848600846406855
:101EC00010B900204861C860002020706070A070C8
:101ED000E070606056480068A060554804602DB905
:101EE000007F18B152498868FFF7BFFE012D06D167
:101EF0004F48407F18B14E494868FFF7B6FE0020B2
:101F0000A5E73746B66833E0A6422FD135B9484831
:101F10008069A0420AD14648876107E0012D05D1BA
:101F200043484069A04201D141484761A068B86078
:101F30003F480068A0603E48046000202070607048
:101F4000A070E070606035B93948007F18B1384939
:101F50008868FFF78AFE012D06D13548407F18B109
:101F600033494868FFF781FE002070E73746B668BE
:101F7000002EC9D135B92E48007F18B12C49886888
:101F8000FFF773FE012D06D12948407F18B128497B
:101F90004868FFF76AFE042059E738B5044608E0B0
:101FA000E0780090A3786278217822A005F08EFE78
:101FB000A468002CF4D138BD2DE9F04104460D464B
:101FC0002CB900201A4908778868FFF7D4FE012C45
:101FD00005D10120164908778868FFF746FE2DB91C
:101FE0000020134948774868FFF7C5FE012D05D149
:101FF00001200F4948774868FFF737FE0C48807F7B
:1020000048B90B48006906780948006947780848CC
:10201000006990F802800648807F012818D10448A2
:10202000C068067802480DE05000002048310020CA
:10203000C832002025642025642025642025640AF8
:1020400000000000C0684778FE48C06890F8028031
:10205000FD4B1A1FFD49502001F073F8FA4B1A1F6F
:10206000FA49304601F060F8F74B143B1A1F191D6E
:10207000384601F059F8F44B143B1A1F191D40461D
:1020800001F05FF80020BDE8F08170B5ED48807F79
:10209000B8B9EC48006908B9012070BDE948006989
:1020A0008068E849086108460069067808460069C2
:1020B00044780846006985780846006908B9012017
:1020C000EBE7E048807F012817D1DE48C06808B9F7
:1020D0000120E2E7DB48C0688068DA49C86008464A
:1020E000C06806780846C06844780846C0688578A5
:1020F0000846C06808B90120CFE7D34B1A1FD3495F
:10210000304601F011F8D04B143B1A1F191D204620
:1021100001F00AF8CC4B143B1A1F191D284601F098
:1021200010F80020B9E770B504460D46C548807F19
:1021300030B9C4480069294642682046904770BDBE
:10214000C048807F012806D1BE48C0682946426841
:1021500020469047F3E70520F1E70246002070474C
:102160002DE9F04180460E4617461C4623463A4666
:1021700031464046FFF711FE054615B90420BDE87B
:10218000F081C4B9AF480561807F78BBAE4B1A1FA0
:10219000AE49404600F0C8FFAB4B143B1A1F191D57
:1021A000304600F0C1FFA84B143B1A1F191D3846DA
:1021B00000F0C7FF1AE0012C18D1A248C560807F4B
:1021C000012813D1A04B1A1FA049404600F0ACFFD4
:1021D0009D4B143B1A1F191D304600F0A5FF9A4B6A
:1021E000143B1A1F191D384600F0ABFF0020C6E74C
:1021F0009448807F70472DE9F041074667B9002079
:10220000904988770846006904780846006945784F
:1022100008460069867811E0012F0CD10120894918
:1022200088770846C06804780846C068457808463C
:10223000C068867802E00520BDE8F081824B1A1F55
:102240008249204600F070FF7F4B143B1A1F191D76
:10225000284600F069FF7C4B143B1A1F191D3046BD
:1022600000F06FFF0020E7E700B5FFF7C1FF10B9EE
:102270007448006900BDFFF7BBFF012802D1714817
:10228000C068F7E700BFF5E72DE9F04F91B00446CD
:10229000894640F24C41E06888427CD9E068B0F55C
:1022A000C86F78D2206808F0C1F905460022684B53
:1022B00008F0D0F945D26748006808F017FDCDE96D
:1022C0000E01206808F0B2F907460022624B08F0C0
:1022D000FDF90022614BCDE9020107F0DBFF054665
:1022E0005F4A604B08F0F2F982465F4A5F4B07F0A5
:1022F00015FFCDE9040107F053FE5D4A5D4BCDE9C2
:10230000060108F0E3F9CDE90A01206808F08EF92A
:1023100007460022504B08F0D9F9054600224F4BE2
:1023200007F0B8FFCDE90801DDE90A2308F0F4FB66
:10233000CDE90C01DDE90E2308F0EEFBC9E900014F
:102340001AE14448006808F0D1FCCDE90E01E068CC
:1023500008F06CF9484A494BCDE9000108F0B6F99C
:1023600005460022464B07F0D9FE8246FFF7BCF92E
:102370000746444A444B08F0A9F9CDE90401206816
:1023800008F054F905460022334B08F09FF9074640
:102390000022324B00E023E007F07CFFCDE9020190
:1023A000DDE9042308F0B8FB384A394BCDE90601D2
:1023B00007F0B4FE374A384BCDE9080108F0ACFB12
:1023C0004FF03332354BCDE90A0108F0A5FBCDE9DA
:1023D0000C01DDE90E2308F09FFBC9E90001CBE009
:1023E000E068B0F5C86F7DD3E068B0F5FA6F7DD2D4
:1023F0001848006808F07AFCCDE90E01E06808F0A2
:1024000015F91D4A1D4BCDE9000108F05FF9824620
:1024100000221B4B07F082FE0746FFF765F90546D1
:10242000184A194B08F052F9CDE90401206808F068
:10243000FDF805460022084B08F048F9074600223F
:10244000064B2DE0C83200209C01214280812142B0
:10245000004C0D41200000200000F83F0088C340E0
:10246000B1A4DC7D8E8F763FF31FD26F5F07E03F14
:102470005839B4C8763E1240569FABADD8DF25C060
:102480000053C640696FF085C954EB3FF4FDD47822
:10249000E92608409A9999999999C93F3333D33FCE
:1024A00007F0F8FECDE90201DDE9042308F034FB72
:1024B000FD4AFE4BCDE9060107F030FEFC4AFD4B1C
:1024C000CDE9080108F028FB4FF03332FA4BCDE993
:1024D0000A0108F021FBCDE90C01DDE90E2308F02B
:1024E0001BFB00E002E0C9E9000145E0E068B0F54F
:1024F000FA6F3DD3F148006808F0F8FBCDE90E0112
:10250000E06808F093F80546ED4AEE4B08F0DEF877
:10251000CDE90401206808F089F807460022EA4B5B
:1025200008F0D4F805460022E84B07F0B3FE8246D7
:10253000DDE9042308F0F0FAE54AE64BCDE90601AF
:1025400008F0EAFADA4ADB4BCDE9080108F0E4FAD0
:102550004FF03332D84BCDE90A0108F0DDFACDE96E
:102560000C01DDE90E2308F0D7FAC9E9000103E008
:10257000062011B0BDE8F08F0020FAE72DE9F04FFA
:1025800091B0044689460022D34BD9E90051284630
:1025900008F09AF97ED240F24C41E068884250D966
:1025A000E068B0F5FA6F4CD2C448006808F09EFBB2
:1025B000CDE90E01E06808F039F88246C74AC84BF9
:1025C00008F084F807460022C64B07F0A7FDCDE9C6
:1025D0000001FFF789F80546C34AC44B08F076F8B6
:1025E000CDE90401206808F021F807460022B64B27
:1025F00008F06CF805460022B44B07F04BFECDE91D
:102600000201DDE9042308F087FAA74AA74BCDE9C8
:10261000060107F083FDA64AA64BCDE9080108F0A4
:102620007BFA4FF03332A44BCDE90A0108F074FA7B
:10263000CDE90C01DDE90E2308F06EFAC9E90001CD
:1026400094E0E068B0F5FA6F40D39C48006808F069
:102650004DFB82468B46E06807F0E8FF0546984A46
:10266000984B08F033F8CDE90601206807F0DEFF4B
:1026700007460022944B08F029F805460022934BA8
:1026800007F008FECDE90401DDE9062308F044FA6D
:102690008F4A00E01EE08F4BCDE9080108F03CFABC
:1026A000834A844BCDE90A0108F036FA4FF0333201
:1026B000814BCDE90C0108F02FFA52465B46CDE97B
:1026C0000E0108F029FAC9E900014FE0072011B016
:1026D000BDE8F08FE068B0F5FA6F45D27748006842
:1026E00008F004FBCDE90E01206807F09FFF0546C6
:1026F0000022754B07F0EAFF07460022734B07F0F4
:10270000C9FD7B4A7B4BCDE9020107F0DFFF7A4A26
:102710007A4BCDE9040107F001FD824607F040FC49
:10272000774A784BCDE9060107F0D0FFCDE90A01E1
:10273000206807F07BFF05460022634B07F0C6FFC9
:1027400007460022614B07F0A5FDCDE90801DDE950
:102750000A2308F0E1F9CDE90C01DDE90E2308F0C8
:10276000DBF9C9E9000101E00720B0E70020AEE78E
:102770002DE9F04F91B00446894640F24C41E068A3
:10278000884250D9E068B0F5FA6F4CD24B480068E7
:1027900008F0ACFACDE90E01E06807F047FF824689
:1027A0004E4A4F4B07F092FF00224E4BCDE90001FD
:1027B00007F0B4FC0546FEF797FF07464A4A4B4B25
:1027C00007F084FFCDE90401206807F02FFF0746DA
:1027D00000223D4B07F07AFF054600223B4B07F0F5
:1027E00059FDCDE90201DDE9042308F095F92E4AEF
:1027F0002E4BCDE9060107F091FC2D4A2D4BCDE97A
:10280000080108F089F94FF033322B4BCDE90A016A
:1028100008F082F9CDE90C01DDE90E2308F07CF91E
:10282000C9E9000178E0E068B0F5FA6F70D3234899
:10283000006808F05BFA82468B46E06807F0F6FE17
:1028400005461F4A1F4B07F041FFCDE906012068EE
:1028500007F0ECFE054600221B4B07F037FF07464A
:1028600000221A4B07F016FDCDE90401DDE906232D
:1028700008F052F9164A174BCDE9080108F04CF957
:102880000B4A0C4BCDE90A0108F046F94FF0333200
:10289000094BCDE90C0108F03FF952465B46CDE902
:1028A0000E0108F039F930E0F4FDD478E92608404B
:1028B0009A9999999999C93F3333D33F20000020C1
:1028C0002D431CEBE2363A3F0000F83F0088C3403E
:1028D0005DDC4603784B104000805B40569FABADFB
:1028E000D8DF25C00053C640696FF085C954EB3F5F
:1028F000B1A4DC7D8E8F763FF31FD26F5F07E03F80
:102900005839B4C8763E124002E0C9E9000103E03C
:10291000062011B0BDE8F08F0020FAE72DE9F04F56
:102920008FB004468946E068B0F5FA6F45D2264874
:10293000006808F0DBF9CDE90C01206807F076FEAD
:1029400007460022214B07F0C1FE05460022204B1E
:1029500007F0A0FC1F4A204BCDE9000107F0B6FEAE
:102960001E4A1F4BCDE9020107F0D8FBCDE9040157
:1029700007F016FB82461B4A1B4B07F0A7FECDE96A
:102980000801206807F052FE074600220F4B07F0AF
:102990009DFE054600220E4B07F07CFCCDE90601AA
:1029A000DDE9082308F0B8F8CDE90A01DDE90C23D8
:1029B00008F0B2F8C9E9000103E007200FB0BDE854
:1029C000F08F0020FAE70000200000200000F83F10
:1029D0000088C340B1A4DC7D8E8F763FF31FD26F99
:1029E0005F07E03F5839B4C8763E12407FB50546D0
:1029F0000C460121022001F042FAADF80850ADF872
:102A000004400020ADF80A00ADF8060001A92A48EC
:102A100001F064FD01221146274802F0D6F81D207E
:102A20008DF8000000208DF8010003208DF80200D1
:102A300001208DF80300684600F08FFE01211E483A
:102A400002F0A8F87FBD7FB505460C460121084677
:102A500001F015FAADF80850ADF804400020ADF8CB
:102A60000A00ADF8060001A94FF0804001F036FDE4
:102A700001221146900702F0A8F81C208DF80000F2
:102A800000208DF8010003208DF8020001208DF850
:102A90000300684600F061FE0121880702F07AF821
:102AA0007FBD10B50121044802F03DFB18B10121A2
:102AB000014802F049FB10BD0004004008B50121A7
:102AC0000C2001F0CFF94FF4C840ADF80000102001
:102AD0008DF8030003208DF8020069462C4800F0B1
:102AE00005FF4FF4C8412A4800F0AFFF012108203C
:102AF00001F0B8F94FF40040ADF8000028208DF83F
:102B000003006946224800F0F1FE002021490860D8
:102B100008BD70B5054600201E490860072414E072
:102B20000A2000F0F3FC45FA04F000F00100194916
:102B3000091D086001201849C1F8B4010A2000F0FD
:102B4000E5FC002013490860641E002CE8DA70BD23
:102B500070B50446254600202870072615E00120A0
:102B60000C4908600A2000F0D1FC002009490860E7
:102B7000287808497839096801F00101B140084313
:102B800028700A2000F0C2FC761E002EE7DA70BD25
:102B9000000C0140B48121420080214208B501218E
:102BA0000C2001F05FF94FF48850ADF800001020C0
:102BB0008DF8030003208DF802006946AE4800F04E
:102BC00095FE4FF48851AC4800F03FFF0420ADF86B
:102BD000000048208DF803006946A74800F086FEF3
:102BE000FFF76CFF08BD38B5002000900120A34915
:102BF00008600020A249C1F8A8013020FFF789FF32
:102C000001209E490860002008609E4908708020CD
:102C1000FFF77FFF002404E09B49085DFFF779FF81
:102C2000641C112CF8DB01209449086000209449B1
:102C3000C1F8A8014020FFF76CFF002411E06846AE
:102C4000FFF786FF9048005D9DF80010884202D093
:102C500001208C4908708B48007808B100BFFEE75E
:102C6000641C112CEBDB8748007848B901208349AC
:102C7000086000208249C1F8A8011820FFF749FF29
:102C800038BDF8B5054600200090002600240FE06E
:102C9000002045F82400002105F1100040F8241020
:102CA000002045F8240005F1100040F82410641CB1
:102CB000042CEDDB04E000F058F9012000F051FC99
:102CC0006E48A03800680028F5D101206B490860E3
:102CD00000206B49C1F8A80104F09CFF064668205B
:102CE000FFF717FF00244CE06846FFF731FF55F867
:102CF00024009DF8001000EB014045F824006846D0
:102D0000FFF726FF55F824009DF8001000EB012086
:102D100045F824006846FFF71BFF55F824009DF88E
:102D20000010084445F824006846FFF711FF05F13C
:102D3000100050F824009DF8001000EB014105F14F
:102D4000100040F824106846FFF702FF05F110005C
:102D500050F824009DF8001000EB012105F110004F
:102D600040F824106846FFF7F3FE05F1100050F814
:102D700024009DF80010014405F1100040F82410D3
:102D8000641C042CB0DB304604F048FFF8BD2DE98C
:102D9000F84380464FF0000900200090002404F022
:102DA00039FF8146FFF71FFF484604F037FF00BF99
:102DB00004F030FF814600F0D8F8484604F02EFFBA
:102DC000012000F0CEFB2D48A03800680028EFD18C
:102DD00004F020FF814643E00120284908600020DC
:102DE0002749C1F8A8016820FFF793FE002533E0CA
:102DF000002600276846FFF7ABFE9DF8000006EBB3
:102E000000466846FFF7A4FE9DF8000006EB00268A
:102E10006846FFF79DFE9DF8000006446846FFF7F0
:102E200097FE9DF8000007EB00476846FFF790FE0D
:102E30009DF8000007EB00276846FFF789FE9DF824
:102E40000000074408EB441040F8256008EB4410EC
:102E5000103040F825706D1C042DC9DB601CC4B215
:102E60000648A038006808B9102CB5DB484604F0C5
:102E7000D5FE2046BDE8F883000C0140A881214220
:102E80000080214251000020CCB3000808B5012188
:102E9000082000F0E7FF6820ADF8000010208DF852
:102EA000030003208DF802006946404800F01EFD33
:102EB00068213E4800F0C9FD0121052000F0D2FF45
:102EC00001213B4800F0E3FD4FF40040ADF8000065
:102ED00010208DF8030003208DF802006946354864
:102EE00000F004FD4FF40041324800F0AEFD012136
:102EF000092000F0B7FF01212D4800F0C8FD102087
:102F0000ADF8000048208DF803006946274800F01E
:102F1000EDFC00202849086001202849C1F88C01F7
:102F200008BD08B50121112000F09CFF012002F02E
:102F30001AF9002000F003FF002002F07AF94FF4A4
:102F40006040ADF8000002208DF8020048208DF8A6
:102F5000030069461A4800F0C9FC002002F003F99A
:102F6000002000F0ECFE08BD704700B501201549B7
:102F70000860FFF7F9FF00201349C1F8BC0100BD4C
:102F800012E0002405E0042000F0EBFAFFF7EDFF6B
:102F9000641C142CF7D34FF4C87000F0E2FA0B480D
:102FA0000068401C09490860EBE70000000C014084
:102FB0000002300000080140988121420080214237
:102FC00000100140BC0121420000214254000020B9
:102FD00008B501210C2000F045FFCE20ADF800001F
:102FE00010208DF8030003208DF802006946754813
:102FF00000F07CFCCE21734800F027FD0120ADF8E5
:10300000000010208DF8030003208DF802006946AF
:103010006D4800F06BFC01216B4800F014FD0821A5
:10302000684800F010FD08BD2DE9F04707468846C6
:1030300014461D46DDF820A04FF0000900BF49EA04
:10304000070048EA002901202060002020600120BC
:1030500000F05CFA002028600F2613E00A2000F040
:1030600055FA29FA06F000F00100CAF800000A201B
:1030700000F04CFA012028600A2000F047FA0020F6
:103080002860761E002EE9DA0A2000F03FFA0120BF
:103090002060BDE8F0872DE9F04105460E46002787
:1030A00000BF47EA050046EA0027012047490860BB
:1030B00000204749C1F88001012000F027FA0020D4
:1030C000444908600F2417E00A2000F01FFA27FA8D
:1030D00004F000F001003F49091D08600A2000F0DB
:1030E00015FA01203C49C1F898010A2000F00EFAB7
:1030F000002038490860641E002CE5DA0A2000F040
:1031000005FA012031490860BDE8F08110B5044698
:1031100021460120FFF7BFFF10BD10B50446214630
:103120000220FFF7B8FF10BDF8B504460D4616465D
:103130001F4633462A46214601200097FFF774FFB9
:10314000F8BDF8B504460D4616461F4633462A46D6
:10315000214602200097FFF767FFF8BDF8B5044647
:103160000D4616461F4633462A4621461120009733
:10317000FFF75AFFF8BDF8B504460D4616461F4640
:1031800033462A46214612200097FFF74DFFF8BD2F
:10319000F8B507460C4615461E462B46224600212A
:1031A00033200096FFF740FFF8BDF8B507460C4600
:1031B00015461E462B462246002123200096FFF787
:1031C00033FFF8BD00080140000C0140808121421E
:1031D00000802142980121420000214208B50121CE
:1031E000082000F03FFE40F28230ADF800001020D1
:1031F0008DF8030003208DF802006946344800F082
:1032000075FB40F28231324800F01DFC002031494C
:10321000086001203049C1F89C0100202D49091D9A
:1032200008602D49C1F8840108BD70B5054601202C
:103230002849086000202849C1F8A4010120254937
:10324000091D086000F062F9002022490860091D8C
:1032500008600F2415E0012000F058F945FA04F049
:1032600000F001001B491C39086000201A49C1F810
:103270009C01012000F04AF901201649091F08604D
:10328000641E002CE7DA01201249091F0860124968
:10329000C1F8A4010F49086000F038F970BD10B5FD
:1032A0000446042C05DA44F45040FFF7BEFF012029
:1032B00010BD0020FCE710B50446B4F5805F05DAC8
:1032C00044F48040FFF7B1FF012010BD0020FCE76F
:1032D000000C0140A08121420080214208B501215B
:1032E000042000F0BFFD1020ADF80000ADF8000094
:1032F00003208DF802006946414800F0F7FA0120EA
:103300004049086008BD00B591B00121084600F0B1
:103310009CFD01214FF4017000F0A4FD2020ADF8C8
:10332000400000208DF8430010A9354800F0DEFA77
:10333000354802F0FDF935480090354801900020ED
:103340000290012003900020049005904FF48070BB
:10335000069080000790202008900002099000202D
:103360000A906946284802F085FA0121264802F0B1
:10337000ACFA00200B908DF8300001208DF8310060
:103380004FF460200D9000200E9001208DF83C003D
:103390000BA91E484C3801F0CAFF4FF4404000F022
:1033A000C5FC05230122194618484C3802F057F88D
:1033B000012116484C3801F0F1FF012113484C3827
:1033C00001F0E1FF11484C3801F0FFFF00BF0F484A
:1033D0004C3801F0FFFF0028F9D10C484C3802F0BE
:1033E00003F800BF09484C3802F003F80028F9D16F
:1033F000012106484C3802F006F811B000BD00006B
:103400000008014090012142080002404C24014084
:103410005800002008B50121042000F023FD012000
:10342000ADF8000028208DF803006946154800F02B
:103430005DFA08BD10B5044614B1012012490870A8
:103440001148007898B101210E4800F0E2FA0128F5
:103450000DD10A2000F085F800200B4908700121E9
:10346000084800F0D6FA012809D1042010BD012136
:10347000044800F0CEFA10B901200349087000207A
:10348000F4E70000000801405A00002010B502F0E7
:103490000DFC10BD10B502F04EFC10BD10B5044679
:1034A000204604F087FA10BD10B53E480078012888
:1034B00005D102F0A8FB02F0ECFC02F0BFFB10BD4E
:1034C00010B56FF0040000F092F9374800683749F2
:1034D000B0FBF1F036490870334800683349B0FB5F
:1034E000F1F441F2883044430520324908804FF01E
:1034F000E020006940F002004FF0E021086108463A
:103500004461006940F00100086110BD2DE9F047F9
:10351000074600264FF0E020D0F8149024480078A9
:1035200007FB00F800BFFFF7B1FF4FF0E02085690F
:1035300011E04FF0E0208469AC420CD0AC4202D2E2
:10354000281B064403E0A9EB040028440644254652
:10355000464500D300E0ECE700BFFFF79BFFBDE866
:10356000F08770B504460F480078A0B11248007883
:1035700088B910480088844206DB0E48008894FB16
:10358000F0F52846FFF78AFF0A48008894FBF0F11F
:1035900000FB114084B24FF47A7104FB01F0FFF795
:1035A000B5FF70BDA20000200000002000127A00CC
:1035B0005C0000205E00002095000020014600BF56
:1035C000704700BF4E4A128802F04002002AF9D02C
:1035D000C2B24B4B1B1D1A80704710B586B0044613
:1035E000012144F2040000F03DFC4FF40070ADF8FE
:1035F000140003208DF8160018208DF8170005A977
:10360000404800F073F94FF48060ADF814000420D6
:103610008DF8170005A93B4800F068F925208DF8C2
:10362000000003208DF801008DF8020001208DF8C4
:103630000300684600F091F801944FF48050ADF813
:1036400008000020ADF80A004FF48060ADF80C00CF
:103650000020ADF810000C20ADF80E0001A928489C
:1036600000F0A7FC012240F22551254800F039FD69
:103670000121234800F029FD06B010BD10B502F06D
:10368000C2FA40F225511E4800F010FE10B31C484B
:1036900000F08CFDC4B21C48008800F40040C8B99A
:1036A0001948008800F4804060B10A2C03D0002043
:1036B0001549088020E01448008840F40040124971
:1036C000088019E00D2C06D10F48008840F4804096
:1036D0000D49088010E00C480088C0F30D000B492C
:1036E0000C5409480088401C074908800846008897
:1036F000C72801DD0020088002F0A0FA10BD0000FC
:10370000003801400008014064000020E832002039
:103710000948804709480047FEE7FEE7FEE7FEE765
:10372000FEE7FEE7FEE7FEE7FEE7FEE704480549A1
:10373000054A064B70470000771100083101000868
:10374000083F0020084500200841002008410020D3
:1037500031490143314A1160704770B5002100239F
:103760000F22C47804B32D4C246804F4E064C4F53B
:10377000E064210AC1F10403CA40447804FA03F169
:103780008478144021430901254C0678A15504781A
:1037900004F01F050124AC4005786D11AD0005F162
:1037A000E025C5F8004109E0047804F01F05012474
:1037B000AC401C4D0678761145F8264070BD1A4A7B
:1037C0000A400243154B1B1F1A60704739B1134A58
:1037D000121D12680243114B1B1D1A6006E00F4AAE
:1037E000121D126882430D4B1B1D1A60704704287E
:1037F00008D14FF0E021096941F004014FF0E022C7
:10380000116107E04FF0E021096921F004014FF058
:10381000E0221161704700000000FA050CED00E0A5
:1038200000E400E080E100E080FFFF1F10B50446E7
:10383000CC48844208D10121042000F02DFB002156
:10384000042000F029FB46E0C748844208D101214A
:10385000082000F021FB0021082000F01DFB3AE0C9
:10386000C248844208D10121102000F015FB00213C
:10387000102000F011FB2EE0BD48844208D1012148
:10388000202000F009FB0021202000F005FB22E0B1
:10389000B848844208D10121402000F0FDFA0021FF
:1038A000402000F0F9FA16E0B348844208D1012123
:1038B000802000F0F1FA0021802000F0EDFA0AE00B
:1038C000AE48844207D10121801500F0E5FA0021BD
:1038D000A01500F0E1FA10BD10B50121084600F076
:1038E000DBFA0021012000F0D7FA10BD2DE9F041EC
:1038F000024600250026002000230024002791F81E
:1039000003C00CF00F0591F803C00CF0100CBCF1D3
:10391000000F03D091F802C04CEA050591F800C0F1
:10392000BCF1000F31D0146800202BE04FF0010CE7
:103930000CFA00F3B1F800C00CEA03069E4220D155
:1039400083004FF00F0C0CFA03F7BC4305FA03FC9D
:103950004CEA040491F803C0BCF1280F06D14FF0E3
:10396000010C0CFA00FCC2F814C00AE091F803C084
:10397000BCF1480F05D14FF0010C0CFA00FCC2F865
:1039800010C0401C0828D1D31460B1F800C0BCF1AD
:10399000FF0F34DD546800202EE000F1080C4FF0DA
:1039A000010808FA0CF3B1F800C00CEA03069E42C5
:1039B00021D183004FF00F0C0CFA03F7BC4305FA3A
:1039C00003FC4CEA040491F803C0BCF1280F05D1B4
:1039D00000F1080C08FA0CF8C2F8148091F803C042
:1039E000BCF1480F07D100F1080C4FF0010808FAAC
:1039F0000CF8C2F81080401C0828CED35460BDE8F3
:103A0000F0814FF6FF710180022181700421C170A5
:103A100070470246002093680B400BB1012000E084
:103A2000002070470146886880B270470246002037
:103A3000D3680B400BB1012000E000207047014625
:103A4000C86880B2704701617047416170470AB130
:103A5000016100E041617047C16070474FF48032FE
:103A60000A4382618161826182698269704702468C
:103A70000020434B18684FF68073184040EA02104C
:103A800008433F4B186070473E49C8617047F0B526
:103A90000A46002300240021002500F00046B6F16C
:103AA000004F02D1364EF16901E0354E7168C0F326
:103AB000034583B200F44016B6F5401F08D121F04B
:103AC00070612F4E766826F070662D4F7E6012E092
:103AD00000F48016B6F5801F06D1032606FA05F419
:103AE000A14341F0706106E0460D360103FA06F687
:103AF000B14341F0706122B1460D360103FA06F67A
:103B0000314300F00046B6F1004F02D11C4EF16186
:103B100001E01B4E7160F0BD30B500228B071C0F19
:103B20000F2303FA04F2164B08338C1053F8243099
:103B30009343134C08348D1044F8253023468C10E1
:103B400053F824308C07240F00FA04F423430C4C60
:103B500008348D1044F8253030BD0A49DC31086046
:103B60007047000000080140000C014000100140B7
:103B70000014014000180140001C014000200140D9
:103B80000000014000002042DF48006840F00100D2
:103B9000DD49086008464068DC490840DA49486069
:103BA00008460068DA490840D749086008460068B6
:103BB00020F4802008600846406820F4FE00486039
:103BC0004FF41F0088607047CF49096821F48031A5
:103BD000CD4A11601146096821F480211160B0F5C9
:103BE000803F03D0B0F5802F0ED106E0C6490968AA
:103BF00041F48031C44A116007E0C349096841F4C7
:103C0000A021C14A116000E000BF00BF704710B59D
:103C100001460022002300204A11012A02D1BA4C99
:103C2000236806E0022A02D1B74C236A01E0B64CB1
:103C3000636A01F01F02012494401C400CB1012072
:103C400000E0002010BD38B50020009000240025C1
:103C500000BF3120FFF7DBFF05460098401C0090B5
:103C60000098B0F5A06F01D0002DF2D03120FFF701
:103C7000CEFF08B1012400E00024204638BD0146F3
:103C80000020A14A106820F0F80040EAC10010604E
:103C90007047A04908607047024600209A4B586858
:103CA00020F47C1042EA01031843974B5860704798
:103CB00098490866704701460020934A506820F0F2
:103CC00003000843506070478F48406800F00C00C4
:103CD0007047014600208C4A506820F0F0000843ED
:103CE0005060704701460020874A506820F4E06029
:103CF00008435060704701460020834A506820F412
:103D0000605040EAC1005060704729B17E4A527A43
:103D100002437D4B5A7204E07B4A527A82437A4BCB
:103D20005A7270477B49D8310860704701460020BD
:103D3000754A506820F440400843506070470021A5
:103D4000714A20321170704A82F82010012802D086
:103D500004280AD104E001216B4A2032117005E0E9
:103D60000521694A2032117000E000BF00BF704792
:103D70006949086070476449096A0143624A1162EF
:103D80007047654944390860704730B5002100220A
:103D9000002400235C4D6D6805F00C0121B104295D
:103DA00005D0082923D105E05C4D056022E05B4D7C
:103DB00005601FE0544D6D6805F47012524D6D683A
:103DC00005F48034022505EB92421CB9544D55434D
:103DD00005600BE04C4D6D6805F400351DB1504D8C
:103DE0005543056002E04D4D5543056002E04B4DE3
:103DF000056000BF00BF444D6D6805F0F001090982
:103E0000484D6B5C0568DD4045603F4D6D6805F4CD
:103E1000E061090A434D6B5C4568DD4085603A4DC1
:103E20006D6805F46051C90A3E4D6B5C4568DD4024
:103E3000C560354D6D6805F44041890B3A4D6B5CAA
:103E4000C568B5FBF3F5056130BD29B12E4A52694D
:103E500002432D4B5A6104E02B4A526982432A4B9C
:103E60005A61704729B1284A92690243264B9A61E8
:103E700004E0254A92698243234B9A61704729B135
:103E8000214AD2690243204BDA6104E01E4AD2691A
:103E900082431D4BDA61704729B11B4AD268024345
:103EA000194BDA6004E0184AD2688243164BDA6094
:103EB000704729B1144A12690243134B1A6104E096
:103EC000114A12698243104B1A61704712494039F6
:103ED000086070470F49C86470470B49C871704744
:103EE0000948406A40F080700749486270470146BF
:103EF0000020054A92680A400AB1012000E0002033
:103F00007047014988727047001002400000FFF8B6
:103F1000FFFFF6FE000042428004424200127A0097
:103F200000093D00660000207600002010B5044620
:103F3000FB48844209D101218803FFF7ADFF00212E
:103F40004FF48040FFF7A8FF32E0F648844209D1E1
:103F500001214804FFF7ADFF00214FF40030FFF7C7
:103F6000A8FF25E0F048844209D101218804FFF729
:103F7000A0FF00214FF48020FFF79BFF18E0EB48E3
:103F8000844209D10121C804FFF793FF00214FF4B7
:103F90000020FFF78EFF0BE0E548844208D10121A5
:103FA0000805FFF786FF00214FF48010FFF781FF1F
:103FB00010BD2DE9F04786B005460E460024A24606
:103FC00000BFA1460027B08900B100BF2F462C8A50
:103FD0004CF6FF700440F08804432C82AC894EF606
:103FE000F3100440B08831890843718908430443C1
:103FF000AC81AC8A4FF6FF400440B0890443AC82E8
:1040000001A8FFF7C2FEC648874202D1DDF810A022
:1040100001E0DDF80CA0A88900F4004040B10AEBF3
:10402000CA0000EB0A1031684900B0FBF1F807E064
:104030000AEBCA0000EB0A1031688900B0FBF1F806
:104040006420B8FBF0F004012009642101FB108911
:10405000A88900F4004040B1322000EBC900B0FB59
:10406000F1F000F00700044308E0322000EB0910F3
:104070006421B0FBF1F000F00F0004432C8106B086
:10408000BDE8F0874FF41651016000218180C180A6
:1040900001810C21418100218181704710B50246C8
:1040A0000020108A4FF2FF0318400B884C882343EE
:1040B0008C882343CC8823431843108210BD0021F1
:1040C000018041808180C180704721B1828942F4A2
:1040D0000052828104E082894DF6FF731A4082818A
:1040E0007047F0B50346002400260025002040F666
:1040F0006A17B94200D100BF1846C1F3421401F05B
:104100001F06012707FA06F5012C01D10C3004E047
:10411000022C01D1103000E014301AB107682F438F
:10412000076002E00768AF430760F0BD1AB1838AF9
:104130000B43838202E0838A8B4383827047028A27
:104140004FF6F0731A400282028A0A4302827047D5
:1041500082894FF2FF731A40828182890A438281E9
:10416000704721B1828942F00202828104E0828993
:104170004FF6FD731A4082817047028A4FF6DF7353
:104180001A400282028A0A430282704721B1028ADF
:1041900042F48042028204E0028A4BF6FF731A4026
:1041A00002827047C1F30802828070470146888806
:1041B000C0F308007047818941F001018181704797
:1041C000028BD2B20283028B42EA01220283704741
:1041D000028B02F47F420283028B0A430283704700
:1041E00021B1828A42F02002828204E0828A4FF664
:1041F000DF731A408282704721B1828A42F0100236
:10420000828204E0828A4FF6EF731A4082827047FE
:1042100021B1828A42F00802828204E0828A4FF64B
:10422000F7731A408282704721B1828942F40042BA
:10423000828103E08289C2F30E028281704721B13C
:10424000828A42F40062828204E0828A4FF2FF7323
:104250001A4082827047828A4FF6FB731A4082822C
:10426000828A0A438282704721B1828A42F0020226
:10427000828204E0828A4FF6FD731A408282704780
:1042800002460020B1F5007F00D100BF13880B402B
:104290000BB1012000E00020704701F40072B2F57C
:1042A000007F00D100BFCA430280704770B502464C
:1042B000002400230025002040F66A16B14200D1F8
:1042C00000BFC1F3421501F01F03012606FA03F3F4
:1042D000012D02D19689334006E0022D02D1168AC3
:1042E000334001E0968A33400C12012606FA04F4AA
:1042F0001688344013B10CB1012000E0002070BDDD
:1043000010B50022002340F66A14A14200D100BF7C
:104310000A1201249440A3B2DC43048010BD0000C3
:10432000003801400044004000480040004C00407C
:104330000050004010B50446FE48844208D10121D7
:10434000C014FFF7A9FD0021E014FFF7A5FDC4E0AC
:10435000B4F1804F08D101210846FFF7AAFD0021E2
:104360000120FFF7A6FDB8E0F348844208D10121FF
:104370000220FFF79EFD00210220FFF79AFDACE02E
:10438000EE48844208D101210420FFF792FD00216C
:104390000420FFF78EFDA0E0E948844208D1012106
:1043A0000820FFF786FD00210820FFF782FD94E03A
:1043B000E448844208D101211020FFF77AFD002152
:1043C0001020FFF776FD88E0DF48844208D1012104
:1043D0002020FFF76EFD00212020FFF76AFD7CE022
:1043E000DA48844208D101214014FFF755FD00212D
:1043F0006014FFF751FD70E0D548844209D10121D6
:10440000C804FFF749FD00214FF40020FFF744FDE9
:1044100063E0D048844209D101210805FFF73CFD43
:1044200000214FF48010FFF737FD56E0CA48844260
:1044300009D101214805FFF72FFD00214FF400109D
:10444000FFF72AFD49E0C548844208D101214020F8
:10445000FFF72FFD00214020FFF72BFD3DE0C04876
:10446000844208D101218020FFF723FD0021802014
:10447000FFF71FFD31E0BB48844208D101218015C0
:10448000FFF717FD0021A015FFF713FD25E0B64843
:10449000844209D101210804FFF7FEFC00214FF4FA
:1044A0008030FFF7F9FC18E0B048844209D10121BF
:1044B0004804FFF7F1FC00214FF40030FFF7ECFC5B
:1044C0000BE0AB48844208D101218804FFF7E4FCEB
:1044D00000214FF48020FFF7DFFC10BD002202888E
:1044E000944B98420ED0994B98420BD0B0F1804F2C
:1044F00008D0914B984205D0904B984202D0904BF7
:10450000984204D14FF68F731A404B881A438D4B53
:10451000984207D08C4B984204D04FF6FF431A4084
:10452000CB881A4302808B8883850B880385814B57
:1045300098420BD0854B984208D08B4B984205D0BF
:104540008A4B984202D08A4B984201D10B7A03865B
:1045500001238382704770B5002400220023058C5C
:104560004FF6FE7635400584028C8388048B4FF627
:104570008F752C40B51E2C400D882C43751E2A408B
:104580000D892A434D882A436A4DA8420BD06F4DAE
:10459000A84208D0744DA84205D0744DA84202D05C
:1045A000734DA84213D14FF6F7752A404D892A431F
:1045B0004FF6FB752A408D882A434FF6FF652B4046
:1045C0004FF6FF552B408D892B43CD892B4383809C
:1045D0000483CD888586028470BD70B500240022D6
:1045E0000023058C4FF6EF7635400584028C8388D6
:1045F000048B48F6FF752C404FF6FF452C400D8884
:104600004FF6FF7606EA05252C434FF6DF752A4064
:104610000D8906EA05152A434D8806EA05152A4341
:10462000444DA84202D0494DA8421DD14FF67F7596
:104630002A404D894FF6FF7606EA05152A434FF6C4
:10464000BF752A408D8806EA05152A434FF6FF35C7
:104650002B404FF2FF752B408D8906EA85052B43D1
:10466000CD8906EA85052B4383800483CD880587A1
:10467000028470BD70B5002400220023058C4FF623
:10468000FF6635400584028C8388848B4FF68F75D6
:104690002C404FF6FC752C400D882C434FF6FF55EF
:1046A0002A400D894FF6FF7606EA05252A434D88F4
:1046B00006EA05252A431F4DA84202D0234DA842F1
:1046C0001DD14FF2FF752A404D894FF6FF7606EA5D
:1046D00005252A434FF6FF352A408D8806EA052531
:1046E0002A434EF6FF752B404DF6FF752B408D8902
:1046F00006EA05152B43CD8906EA05152B43838071
:104700008483CD888587028470BD70B50022002324
:104710000024058C4EF6FF7635400584038C848892
:10472000828B48F6FF752A404FF6FF452A400D88D8
:1047300020E00000002C0140000400400008004080
:10474000000C004000100040001400400034014004
:10475000004C01400050014000540140001800404E
:10476000001C004000200040004001400044014087
:10477000004801404FF6FF7606EA05252A434DF62C
:10478000FF752B400D8906EA05352B434D8806EA57
:1047900005352B43FA4DA84202D0FA4DA84208D164
:1047A0004BF6FF752C408D894FF6FF7606EA85158E
:1047B0002C4384808283CD88A0F84050038470BD50
:1047C000828B4FF2FF331A408283828B4FF6FF7346
:1047D00003EA01231A4382837047F0B50C4615465D
:1047E000002200210026078C4EF6FF7C07EA0C070A
:1047F0000784828B018C4FF6FF7707EA043640F678
:10480000FF473A404FF6FF7707EA05273A434FF64E
:10481000FF7707EA03373A43D94FB8420ED0D94F52
:10482000B8420BD0B0F1804F08D0D74FB84205D076
:10483000D64FB84202D0D64FB84206D14DF6FF77D8
:10484000394046F48057394305E047F6FF57394071
:1048500044F48057394382830184F0BD828B4FF644
:10486000F3731A408283828B0A4382837047F0B5C8
:104870000C461546002200210026078C4FF6FF6CDF
:1048800007EA0C070784828B018C4FF6FF7707EA53
:1048900004264FF60C773A404FF6FF7707EA0317E6
:1048A0002F433A43B64FB8420ED0B64FB8420BD062
:1048B000B0F1804F08D0B44FB84205D0B34FB842E2
:1048C00002D0B34FB84206D14FF6FF57394046F4F5
:1048D0008077394305E04FF2FF57394044F4807741
:1048E000394382830184F0BD028B4FF2FF331A40BB
:1048F0000283028B4FF6FF7303EA01231A430283FC
:104900007047F0B50C461546002200210026078CA2
:104910004FF6EF7C07EA0C070784028B018C4FF6F9
:10492000FF7707EA041640F6FF473A404FF6FF7755
:1049300007EA03373A434FF6FF7707EA05273A437A
:104940008F4FB8420ED08F4FB8420BD0B0F1804F8E
:1049500008D08D4FB84205D08C4FB84202D08C4F52
:10496000B84206D14FF6DF77394046F01007394399
:1049700005E04FF65F77394044F010073943028372
:104980000184F0BD028B4FF6F3731A400283028B51
:104990000A4302837047F0B50C46154600220021F9
:1049A000068C4FF6FE773E400684028B018C4FF654
:1049B0000C7632407E1C06EA03162E433243704EBC
:1049C000B0420ED06F4EB0420BD0B0F1804F08D045
:1049D0006D4EB04205D06D4EB04202D06C4EB0422A
:1049E00006D14FF6FD76314044F00106314305E033
:1049F0004FF6F576314044F00106314302830184DD
:104A0000F0BD70B505460C465D4885420ED05D4848
:104A100085420BD0B5F1804F08D05B48854205D068
:104A20005A48854202D05A48854200D100E000BF72
:104A3000208850B92389A28861882846FFF7ABFFF8
:104A4000E1882846FFF79EFF25E0208804280AD148
:104A50002389A28861882846FFF753FFE18828460A
:104A6000FFF742FF17E0208808280AD12389A2888F
:104A700061882846FFF7FBFEE1882846FFF7EEFE37
:104A800009E02389A28861882846FFF7A6FEE1880D
:104A90002846FFF795FE70BD2DE9F04105460C460E
:104AA00000260127608808B9022600E00026A088B9
:104AB000012801D1022700E001272088A0B923891D
:104AC000A28861882846FFF766FFE1882846FFF73D
:104AD00059FF23893A4631462846FFF712FFE188FD
:104AE0002846FFF701FF13E02389A2886188284642
:104AF000FFF707FFE1882846FFF7F6FE23893A46CD
:104B000031462846FFF747FFE1882846FFF73AFF7E
:104B1000BDE8F0810A884B881A438B881A43CB88FA
:104B20001A430B891A434B891A438B891A43A0F8FD
:104B3000442070474FF6FF71818000210180C180C1
:104B40004180017270470021018041808180C180D5
:104B5000018141818181C1817047002101804180B3
:104B6000012181800021C1800181704700210180E5
:104B700041808180C1800181418181817047000035
:104B8000002C0140003401400004004000080040B7
:104B9000000C004021B1028842F00102028004E0D2
:104BA00002884FF6FE731A400280704731B1B0F8A8
:104BB000442042F40042A0F8442005E0B0F844202C
:104BC000C2F30E02A0F8442070471AB183890B4348
:104BD000838102E083898B438381704781827047A0
:104BE00041EA0203A0F8483070471AB183890B43A9
:104BF000838102E083898B438381704701894FF66B
:104C0000F8721140018170470A46002101894FF670
:104C10008F73194011430181704730B504460D462A
:104C200029462046FFF7F0FF208940F00700208149
:104C300030BD2DE9F04104460D4616461F46602D55
:104C400006D13B46012231462046FFF75AFE05E0D9
:104C50003B46012231462046FFF79DFE294620466D
:104C6000FFF7D2FF208940F007002081BDE8F081E6
:104C700030B50C4600210189C9B24FF6FF7505EA2F
:104C80000325154325432943018130BD2DE9F0411A
:104C900005460E4617469846002443463A46314696
:104CA0002846FFF7E5FF2C894FF6F870044044F0E2
:104CB00007044FF68F70044044F070042C81BDE867
:104CC000F081F0B504460D4616461F463B46324677
:104CD00029462046FFF7CCFF208940F48040208100
:104CE000F0BD0185828270470A46002101884FF697
:104CF0008F731940114301807047F0B50C4615467B
:104D00001E460021002200230189028B038C4FF6EE
:104D1000F877394021434FF6FC473A4040F20117FB
:104D20003A434FF6DD773B404FF6FF7707EA061729
:104D30002F433B43018102830384F0BD0A460021D7
:104D4000018B4FF68F7319401143018370470A4658
:104D50000021018B48F6FF7319404FF6FF7303EAF9
:104D600002231943018370470A460021818B4FF6C5
:104D70008F7319401143818370470A460021818B4C
:104D800048F6FF7319404FF6FF7303EA02231943F5
:104D90008183704721B1028842F08002028004E0E2
:104DA00002884FF67F731A400280704721B18288D3
:104DB00042F00402828004E082884FF6FB731A40BE
:104DC0008280704721B1828842F00802828004E02C
:104DD00082884FF6F7731A408280704721B182882B
:104DE00042F00102828004E082884FF6FE731A408E
:104DF000828070470A460021018B4FF6F7731940F5
:104E00001143018370470A460021018B4FF2FF7363
:104E100019404FF6FF7303EA0223194301837047D9
:104E20000A460021818B4FF6F773194011438183A5
:104E300070470A460021818B4FF2FF7319404FF6ED
:104E4000FF7303EA02231943818370470A46002156
:104E5000018B4FF6FB7319401143018370470A46DB
:104E60000021018B4FF6FF3319404FF6FF7303EA21
:104E700002231943018370470A460021818B4FF6B4
:104E8000FB7319401143818370470A460021818BCF
:104E90004FF6FF3319404FF6FF7303EA022319431D
:104EA000818370470A460021018B4FF67F731940BA
:104EB0001143018370470A460021018BC1F30E01A3
:104EC0004FF6FF7303EA02231943018370470A4632
:104ED0000021818B4FF67F73194011438183704706
:104EE0000A460021818BC1F30E014FF6FF7303EADE
:104EF00002231943818370470A460021018C4FF633
:104F0000FD7319401143018470470A460021018C4A
:104F10004FF6F77319401143018470470A46002188
:104F2000018C4FF6DF7319404FF6FF7303EA02134B
:104F30001943018470470A460021018C4FF67F73A4
:104F400019404FF6FF7303EA0213194301847047B7
:104F50000A460021018C4FF6FF5319404FF6FF73AC
:104F600003EA02231943018470470A460021018C99
:104F70004FF2FF7319404FF6FF7303EA0223194300
:104F8000018470470A460021018C4DF6FF731940D9
:104F90004FF6FF7303EA023319430184704730B5BB
:104FA000002301248C40A3B2048C9C430484048C11
:104FB00002FA01F5ADB22C43048430BD30B50023B4
:104FC00004248C40A3B2048C9C430484048C02FA15
:104FD00001F5ADB22C43048430BD70B5034600200A
:104FE00000241846183001258D40ACB21D8CA54315
:104FF0001D8409B1082909D100EB6100056825F07D
:10500000700505600568154305600EE00D1FC5F3CA
:105010004E052844056825F4E045056005684FF60F
:10502000FF7606EA02263543056070BD21B102888D
:1050300042F00202028004E002884FF6FD731A403B
:105040000280704721B1028842F00402028004E02D
:1050500002884FF6FB731A400280704721B18288A4
:1050600042F08002828004E082884FF67F731A400B
:105070008280704702884FF6F7731A4002800288D8
:105080000A430280704782884FF68F731A408280ED
:1050900082880A438280704702894FF6F8731A406B
:1050A000028102890A430281704702894FF67F73A9
:1050B0001A40028102890A43028170478184704745
:1050C0008185704781867047018770478187704767
:1050D000A0F84010704702884FF6FF431A40028044
:1050E00002880A43028070470146888E7047014655
:1050F000088F70470146888F70470146B1F840001D
:1051000070470146888C70470146088D70470246FB
:105110000020138A0B400BB1012000E000207047F3
:10512000CA430282704730B50246002000230024A3
:10513000158A05EA0103958905EA010413B10CB14A
:10514000012000E0002030BDCA4302827047000009
:1051500010B501210807FEF7ACFE00214FF080508A
:10516000FEF7A7FE10BD2A4908627047284908616A
:10517000704701460020274A106820F0E0000843ED
:10518000106070472249A0310860704710B5024690
:105190000020204B186820F00300104318601E4BBD
:1051A0001B6843F004031C4C2360012901D130BF6C
:1051B00000E020BF184B1B6823F00403164C23604B
:1051C00010BD1448006840F0040012490860084609
:1051D000006840F0020008600F48006840F00400DA
:1051E0000D49086000BF00BF30BF70470146002076
:1051F000084A52680A400AB1012000E000207047C6
:105200000449096841EA8001024A116070470000C0
:1052100000000E420070004010ED00E010B50120CB
:10522000FEF754FE0020FEF751FE10BD2A4908602B
:1052300070472949091F0860704727498431086071
:10524000704701460020254A10884FF67F421040E3
:105250000843224A10807047014600201F4A1088E8
:105260004FF68072104008431C4A1080704708B502
:1052700000220092194A2C3A0092009A02440092AD
:10528000009A116008BD08B501460020009013483F
:105290002C3800900098084400900098008808BDC1
:1052A0000D489C300068C0B270470C480830008838
:1052B00040F0010009490831088070470648A030D5
:1052C0000068C0B2704705480830008840F002000E
:1052D000024908310880704704860D422C6C00405A
:1052E00010B50446FA48844208D101214015FEF762
:1052F000D3FD00216015FEF7CFFD17E0F54884428D
:1053000008D101210015FEF7C7FD00212015FEF789
:10531000C3FD0BE0F048844208D10121C803FEF729
:10532000BBFD00214FF40040FEF7B6FD10BD30B5C7
:105330000246002000235068E84C20400D790C689C
:1053400044EA0524204350609068E54C2040D1E9B0
:1053500002542C434D7944EA450420439060D06ABE
:1053600020F470000C7C641EE4B2234340EA035036
:10537000D06230BD00210160017141718160C16066
:1053800001210174704721B1826842F001028260FC
:1053900003E0826822F001028260704721B18268D6
:1053A00042F48072826003E0826822F4807282603C
:1053B000704710B50023CBB21AB144681C43446057
:1053C00002E044689C43446010BD816841F00801DC
:1053D00081607047014600208A6802F008020AB125
:1053E000012000E000207047816841F004018160E5
:1053F0007047014600208A6802F004020AB10120C9
:1054000000E00020704721B1826842F4A00282606F
:1054100003E0826822F4A002826070470146002007
:105420008A6802F480020AB1012000E0002070477F
:1054300010B50A4600210023416821F46041531E43
:1054400041EA4331416010BD21B1426842F400623B
:10545000426003E0426822F4006242607047F0B5A7
:1054600004460D4600200021092D11DDE068A5F15C
:105470000A0606EB4607072606FA07F18843A5F158
:105480000A0606EB460603FA06F10843E0600CE064
:10549000206905EB4507072606FA07F1884305EB67
:1054A000450603FA06F108432061072A0FDA606B0C
:1054B000561E06EB86071F2606FA07F18843561E7E
:1054C00006EB860605FA06F10843606322E00D2A22
:1054D0000FDA206BD61F06EB86071F2606FA07F1A8
:1054E0008843D61F06EB860605FA06F108432063BB
:1054F00010E0E06AA2F10D0606EB86071F2606FA09
:1055000007F18843A2F10D0606EB860605FA06F1BF
:105510000843E062F0BD21B1826842F480128260EB
:1055200003E0826822F48012826070470146C86CF2
:1055300080B2704766484C300068704721B14268BD
:1055400042F48062426003E0426822F4806242607A
:10555000704721B1426842F48052426003E04268E1
:1055600022F48052426070470A460021816821F48B
:10557000E04111438160704721B1826842F40042EA
:10558000826003E0826822F400428260704721B1A9
:10559000826842F40212826003E0826822F40212FE
:1055A00082607047014600208A6802F400120AB146
:1055B000012000E000207047F0B5044615460020A9
:1055C00000220026092911DDE068A1F10A0707EB96
:1055D000470C072707FA0CF29043A1F10A0707EBE3
:1055E000470703FA07F21043E0600CE0206901EB83
:1055F000410C072707FA0CF2904301EB410703FA2D
:1056000007F210432061A06BC0F30156EF1C06F1B6
:10561000010CA7EB0C0707EB870C1F2707FA0CF20E
:105620009043EF1C06F1010CA7EB0C0707EB870773
:1056300001FA07F21043A063F0BD10B50A4600213D
:105640000023816B21F44011531E41EA0351816311
:1056500010BD08B5002300930090009B0B440093FD
:10566000009B1A6008BD08B5024600200090009219
:1056700001F12800009B184400900098006880B257
:1056800008BD0A4600214168164B1940114341608C
:1056900070474162826270470A460021416821F0EA
:1056A0001F0111434160704740B109490831096841
:1056B00041F40001064A0832116007E0044908314C
:1056C000096821F40001024A0832116070470000A5
:1056D0000024014000280140003C0140FFFEF0FF93
:1056E000FDF7F1FFFFFD3FFF0246002013680B406E
:1056F0000BB1012000E000207047CA4302607047F0
:1057000070B502460020002300240B125568CEB26B
:1057100005EA060415681D4015B10CB1012000E032
:10572000002070BD00220A12D343036070470000BE
:1057300001684FF6FE721140016000210160416076
:105740008160C1608D49884208D18C490839496817
:1057500041F00F01894A083A51608AE087491431C3
:10576000884208D185490839496841F0F001834AE7
:10577000083A51607DE081492831884208D17F494B
:105780000839496841F470617C4A083A516070E018
:105790007A493C31884208D178490839496841F44E
:1057A0007041764A083A516063E07449503188424A
:1057B00008D172490839496841F470216F4A083AA2
:1057C000516056E06D496431884208D16B4908390F
:1057D000496841F47001694A083A516049E06749F3
:1057E0007831884208D165490839496841F07061CB
:1057F000624A083A51603CE06149884206D1011F83
:10580000096841F00F01021F116032E05C49143158
:10581000884208D15A49091F096841F0F001584AE5
:10582000121F116025E056492831884208D1544999
:10583000091F096841F47061514A121F116018E094
:105840004F493C31884208D14D49091F096841F44C
:1058500070414B4A121F11600BE049495031884298
:1058600007D14749091F096841F47021444A121FB2
:105870001160704710B50022026847F6F0739A4332
:105880000C6A8B6823430C6923434C6923438C695E
:105890002343CC6923434C6A23438C6A23431A4332
:1058A0000260CB6843600B6883604B68C36010BDC7
:1058B0000021016041608160C160016141618161DD
:1058C000C161016241628162704721B1026842F0A8
:1058D0000102026004E002684FF6FE731A400260A3
:1058E00070471AB103680B43036002E003688B43FF
:1058F00003607047416070470146486880B2704756
:1059000001460020002201F080531BB11C4B083BD4
:105910001A6802E0194B083B1A6802EA01030BB14E
:10592000012000E00020704700F0805119B11449B7
:10593000091F086002E011490839486070470146B4
:105940000020002201F080531BB10D4B083B1A6868
:1059500002E00A4B083B1A6802EA01030BB101207E
:1059600000E00020704700F0805119B10449091F80
:10597000086002E0014908394860704708000240A9
:10598000080402407CB5002514E06946284601F071
:1059900007FF064666B9F84850F8254044B1012C87
:1059A00006D0D4E9020100EB810060640198A06494
:1059B000681CC5B23F2DE8D97CBD002400BF02E0C1
:1059C000282001F0F7FFED4800780028F8D0EC48D7
:1059D00000686421B0FBF1F0E949086008460068FE
:1059E00028B90020E7490870FF2001F01BFF00BF25
:1059F00002F010F90446E4480068E4490860002019
:105A0000E1490860204602F009F9E0480068DC49F5
:105A10000968B0FBF1F0C0F16400DA49087002F0E7
:105A2000A6F8FFF7AFFF142001F0C4FFE0E700B5D0
:105A300087B0032000218022D54BCDE90132CDE98A
:105A400003104FF6FE703E23D24A0090AFF295004D
:105A500001F0BFFC06AAD0A13E2001F023FE07B052
:105A600000BD002400BF00BF02F0D4F80446C648C1
:105A70000068401CC4490860204602F0CFF802F0DC
:105A800075F8F1E700B587B0032000218022C64BEE
:105A9000CDE90132CDE903104FF6FF703F23C34A31
:105AA0000090AFF2410001F094FC06AAC0A13F2093
:105AB00001F0F8FD07B000BD04E0002200F8012B62
:105AC0004A1E91B20029F8D1704770B5C821BC4870
:105AD000FFF7F2FF00230FE0581C85B203EB8300B1
